{
  "contractName": "ModelEvaluation",
  "abi": [
    {
      "anonymous": false,
      "inputs": [
        {
          "indexed": false,
          "internalType": "uint256",
          "name": "modelId",
          "type": "uint256"
        },
        {
          "indexed": false,
          "internalType": "uint256",
          "name": "version",
          "type": "uint256"
        }
      ],
      "name": "ModelResultAdded",
      "type": "event"
    },
    {
      "anonymous": false,
      "inputs": [
        {
          "indexed": false,
          "internalType": "uint256",
          "name": "modelId",
          "type": "uint256"
        },
        {
          "indexed": false,
          "internalType": "uint256",
          "name": "version",
          "type": "uint256"
        }
      ],
      "name": "ModelValidated",
      "type": "event"
    },
    {
      "inputs": [],
      "name": "accuracyThreshold",
      "outputs": [
        {
          "internalType": "uint256",
          "name": "",
          "type": "uint256"
        }
      ],
      "stateMutability": "view",
      "type": "function"
    },
    {
      "inputs": [],
      "name": "f1ScoreThreshold",
      "outputs": [
        {
          "internalType": "uint256",
          "name": "",
          "type": "uint256"
        }
      ],
      "stateMutability": "view",
      "type": "function"
    },
    {
      "inputs": [
        {
          "internalType": "uint256",
          "name": "",
          "type": "uint256"
        },
        {
          "internalType": "uint256",
          "name": "",
          "type": "uint256"
        }
      ],
      "name": "modelResults",
      "outputs": [
        {
          "internalType": "uint256",
          "name": "modelId",
          "type": "uint256"
        },
        {
          "internalType": "uint256",
          "name": "version",
          "type": "uint256"
        },
        {
          "internalType": "uint256",
          "name": "accuracy",
          "type": "uint256"
        },
        {
          "internalType": "uint256",
          "name": "recall",
          "type": "uint256"
        },
        {
          "internalType": "uint256",
          "name": "f1Score",
          "type": "uint256"
        },
        {
          "internalType": "string",
          "name": "metadata",
          "type": "string"
        }
      ],
      "stateMutability": "view",
      "type": "function"
    },
    {
      "inputs": [],
      "name": "recallThreshold",
      "outputs": [
        {
          "internalType": "uint256",
          "name": "",
          "type": "uint256"
        }
      ],
      "stateMutability": "view",
      "type": "function"
    },
    {
      "inputs": [
        {
          "internalType": "uint256",
          "name": "modelId",
          "type": "uint256"
        },
        {
          "internalType": "uint256",
          "name": "version",
          "type": "uint256"
        },
        {
          "internalType": "uint256",
          "name": "accuracy",
          "type": "uint256"
        },
        {
          "internalType": "uint256",
          "name": "recall",
          "type": "uint256"
        },
        {
          "internalType": "uint256",
          "name": "f1Score",
          "type": "uint256"
        },
        {
          "internalType": "string",
          "name": "metadata",
          "type": "string"
        }
      ],
      "name": "addModelResult",
      "outputs": [],
      "stateMutability": "nonpayable",
      "type": "function"
    },
    {
      "inputs": [
        {
          "internalType": "uint256",
          "name": "modelId",
          "type": "uint256"
        },
        {
          "internalType": "uint256",
          "name": "version",
          "type": "uint256"
        }
      ],
      "name": "validateModel",
      "outputs": [
        {
          "internalType": "bool",
          "name": "",
          "type": "bool"
        }
      ],
      "stateMutability": "view",
      "type": "function"
    }
  ],
  "bytecode": "0x608060405260505f556050600155605060025534801561001d575f80fd5b50610dae8061002b5f395ff3fe608060405234801561000f575f80fd5b5060043610610060575f3560e01c806301d86a6b146100645780630b237d7e1461008257806317e81c29146100b2578063527ca318146100d05780635ecf625a146100ee578063c441872c1461010a575b5f80fd5b61006c61013f565b6040516100799190610569565b60405180910390f35b61009c600480360381019061009791906105bd565b610145565b6040516100a99190610615565b60405180910390f35b6100ba6102e1565b6040516100c79190610569565b60405180910390f35b6100d86102e6565b6040516100e59190610569565b60405180910390f35b6101086004803603810190610103919061076a565b6102ec565b005b610124600480360381019061011f91906105bd565b610479565b60405161013696959493929190610889565b60405180910390f35b60025481565b5f8160075f8581526020019081526020015f20805490501161019c576040517f08c379a000000000000000000000000000000000000000000000000000000000815260040161019390610939565b60405180910390fd5b5f60075f8581526020019081526020015f2083815481106101c0576101bf610957565b5b905f5260205f2090600602016040518060c00160405290815f820154815260200160018201548152602001600282015481526020016003820154815260200160048201548152602001600582018054610218906109b1565b80601f0160208091040260200160405190810160405280929190818152602001828054610244906109b1565b801561028f5780601f106102665761010080835404028352916020019161028f565b820191905f5260205f20905b81548152906001019060200180831161027257829003601f168201915b50505050508152505090505f548160400151101580156102b55750600154816060015110155b80156102c75750600254816080015110155b156102d65760019150506102db565b5f9150505b92915050565b5f5481565b60015481565b60075f8781526020019081526020015f206040518060c0016040528088815260200187815260200186815260200185815260200184815260200183815250908060018154018082558091505060019003905f5260205f2090600602015f909190919091505f820151815f01556020820151816001015560408201518160020155606082015181600301556080820151816004015560a08201518160050190816103959190610b7e565b50505060065f8154809291906103aa90610c7a565b91905055508360035f8282546103c09190610cc1565b925050819055508260045f8282546103d89190610cc1565b925050819055508160055f8282546103f09190610cc1565b925050819055506006546003546104079190610d21565b5f8190555060065460045461041c9190610d21565b6001819055506006546005546104329190610d21565b6002819055507fb1f1ef93eb8c7db3cb4a989adcbd5721658628c2378ed9e5c4f6595a6e9f87968686604051610469929190610d51565b60405180910390a1505050505050565b6007602052815f5260405f208181548110610492575f80fd5b905f5260205f2090600602015f9150915050805f0154908060010154908060020154908060030154908060040154908060050180546104d0906109b1565b80601f01602080910402602001604051908101604052809291908181526020018280546104fc906109b1565b80156105475780601f1061051e57610100808354040283529160200191610547565b820191905f5260205f20905b81548152906001019060200180831161052a57829003601f168201915b5050505050905086565b5f819050919050565b61056381610551565b82525050565b5f60208201905061057c5f83018461055a565b92915050565b5f604051905090565b5f80fd5b5f80fd5b61059c81610551565b81146105a6575f80fd5b50565b5f813590506105b781610593565b92915050565b5f80604083850312156105d3576105d261058b565b5b5f6105e0858286016105a9565b92505060206105f1858286016105a9565b9150509250929050565b5f8115159050919050565b61060f816105fb565b82525050565b5f6020820190506106285f830184610606565b92915050565b5f80fd5b5f80fd5b5f601f19601f8301169050919050565b7f4e487b71000000000000000000000000000000000000000000000000000000005f52604160045260245ffd5b61067c82610636565b810181811067ffffffffffffffff8211171561069b5761069a610646565b5b80604052505050565b5f6106ad610582565b90506106b98282610673565b919050565b5f67ffffffffffffffff8211156106d8576106d7610646565b5b6106e182610636565b9050602081019050919050565b828183375f83830152505050565b5f61070e610709846106be565b6106a4565b90508281526020810184848401111561072a57610729610632565b5b6107358482856106ee565b509392505050565b5f82601f8301126107515761075061062e565b5b81356107618482602086016106fc565b91505092915050565b5f805f805f8060c087890312156107845761078361058b565b5b5f61079189828a016105a9565b96505060206107a289828a016105a9565b95505060406107b389828a016105a9565b94505060606107c489828a016105a9565b93505060806107d589828a016105a9565b92505060a087013567ffffffffffffffff8111156107f6576107f561058f565b5b61080289828a0161073d565b9150509295509295509295565b5f81519050919050565b5f82825260208201905092915050565b5f5b8381101561084657808201518184015260208101905061082b565b5f8484015250505050565b5f61085b8261080f565b6108658185610819565b9350610875818560208601610829565b61087e81610636565b840191505092915050565b5f60c08201905061089c5f83018961055a565b6108a9602083018861055a565b6108b6604083018761055a565b6108c3606083018661055a565b6108d0608083018561055a565b81810360a08301526108e28184610851565b9050979650505050505050565b7f4d6f64656c20726573756c74206e6f7420666f756e64000000000000000000005f82015250565b5f610923601683610819565b915061092e826108ef565b602082019050919050565b5f6020820190508181035f83015261095081610917565b9050919050565b7f4e487b71000000000000000000000000000000000000000000000000000000005f52603260045260245ffd5b7f4e487b71000000000000000000000000000000000000000000000000000000005f52602260045260245ffd5b5f60028204905060018216806109c857607f821691505b6020821081036109db576109da610984565b5b50919050565b5f819050815f5260205f209050919050565b5f6020601f8301049050919050565b5f82821b905092915050565b5f60088302610a3d7fffffffffffffffffffffffffffffffffffffffffffffffffffffffffffffffff82610a02565b610a478683610a02565b95508019841693508086168417925050509392505050565b5f819050919050565b5f610a82610a7d610a7884610551565b610a5f565b610551565b9050919050565b5f819050919050565b610a9b83610a68565b610aaf610aa782610a89565b848454610a0e565b825550505050565b5f90565b610ac3610ab7565b610ace818484610a92565b505050565b5b81811015610af157610ae65f82610abb565b600181019050610ad4565b5050565b601f821115610b3657610b07816109e1565b610b10846109f3565b81016020851015610b1f578190505b610b33610b2b856109f3565b830182610ad3565b50505b505050565b5f82821c905092915050565b5f610b565f1984600802610b3b565b1980831691505092915050565b5f610b6e8383610b47565b9150826002028217905092915050565b610b878261080f565b67ffffffffffffffff811115610ba057610b9f610646565b5b610baa82546109b1565b610bb5828285610af5565b5f60209050601f831160018114610be6575f8415610bd4578287015190505b610bde8582610b63565b865550610c45565b601f198416610bf4866109e1565b5f5b82811015610c1b57848901518255600182019150602085019450602081019050610bf6565b86831015610c385784890151610c34601f891682610b47565b8355505b6001600288020188555050505b505050505050565b7f4e487b71000000000000000000000000000000000000000000000000000000005f52601160045260245ffd5b5f610c8482610551565b91507fffffffffffffffffffffffffffffffffffffffffffffffffffffffffffffffff8203610cb657610cb5610c4d565b5b600182019050919050565b5f610ccb82610551565b9150610cd683610551565b9250828201905080821115610cee57610ced610c4d565b5b92915050565b7f4e487b71000000000000000000000000000000000000000000000000000000005f52601260045260245ffd5b5f610d2b82610551565b9150610d3683610551565b925082610d4657610d45610cf4565b5b828204905092915050565b5f604082019050610d645f83018561055a565b610d71602083018461055a565b939250505056fea26469706673582212200f577d95722cec4775fd6894fddf406aefaf2f836b8026f36346fd3ce76b691464736f6c63430008140033",
  "immutableReferences": {},
  "source": "// SPDX-License-Identifier: UNLICENSED\npragma solidity ^0.8.0;\n\ncontract ModelEvaluation {\n    struct ModelResult {\n        uint256 modelId;\n        uint256 version;\n        uint256 accuracy;\n        uint256 recall;\n        uint256 f1Score;\n        string metadata;\n    }\n\n    // Define the initial performance thresholds\n    uint256 public accuracyThreshold = 80;\n    uint256 public recallThreshold = 80;\n    uint256 public f1ScoreThreshold = 80;\n    \n    // Keep track of the total performance for each metric\n    uint256 private totalAccuracy;\n    uint256 private totalRecall;\n    uint256 private totalF1Score;\n    \n    // Keep track of the number of models evaluated\n    uint256 private modelCount;\n    \n    mapping(uint256 => ModelResult[]) public modelResults;\n    \n    event ModelResultAdded(uint256 modelId, uint256 version);\n    event ModelValidated(uint256 modelId, uint256 version);\n    \n    function addModelResult(\n        uint256 modelId,\n        uint256 version,\n        uint256 accuracy,\n        uint256 recall,\n        uint256 f1Score,\n        string memory metadata\n    ) public {\n        modelResults[modelId].push(ModelResult(modelId, version, accuracy, recall, f1Score, metadata));\n\n        // Increment the model count first\n        modelCount++;\n\n        // Update the total performance for each metric\n        totalAccuracy += accuracy;\n        totalRecall += recall;\n        totalF1Score += f1Score;\n\n        // Now, as modelCount has been incremented, you can safely perform the division\n        accuracyThreshold = totalAccuracy / modelCount;\n        recallThreshold = totalRecall / modelCount;\n        f1ScoreThreshold = totalF1Score / modelCount;\n\n        emit ModelResultAdded(modelId, version);\n    }\n    \n    function validateModel(uint256 modelId, uint256 version) public view returns (bool) {\n        require(modelResults[modelId].length > version, \"Model result not found\");\n        \n        ModelResult memory result = modelResults[modelId][version];\n        \n        // Check if the model's performance meets the thresholds\n        if (result.accuracy >= accuracyThreshold &&\n            result.recall >= recallThreshold &&\n            result.f1Score >= f1ScoreThreshold) {\n            return true;\n        } else {\n            return false;\n        }\n    }\n}",
  "sourcePath": "/Users/irfankaradeniz/Documents/Repos/Model Monitoring Simulation/contracts/validation.sol",
  "compiler": {
    "name": "solc",
    "version": "0.8.20+commit.a1b79de6.Emscripten.clang"
  },
  "schemaVersion": "3.4.13",
  "updatedAt": "2023-05-24T18:29:38.118Z",
  "devdoc": {
    "kind": "dev",
    "methods": {},
    "version": 1
  },
  "userdoc": {
    "kind": "user",
    "methods": {},
    "version": 1
  }
}