{
  "contractName": "ModelResultNFT",
  "abi": [
    {
      "inputs": [],
      "stateMutability": "nonpayable",
      "type": "constructor"
    },
    {
      "anonymous": false,
      "inputs": [
        {
          "indexed": true,
          "internalType": "address",
          "name": "owner",
          "type": "address"
        },
        {
          "indexed": true,
          "internalType": "address",
          "name": "approved",
          "type": "address"
        },
        {
          "indexed": true,
          "internalType": "uint256",
          "name": "tokenId",
          "type": "uint256"
        }
      ],
      "name": "Approval",
      "type": "event"
    },
    {
      "anonymous": false,
      "inputs": [
        {
          "indexed": true,
          "internalType": "address",
          "name": "owner",
          "type": "address"
        },
        {
          "indexed": true,
          "internalType": "address",
          "name": "operator",
          "type": "address"
        },
        {
          "indexed": false,
          "internalType": "bool",
          "name": "approved",
          "type": "bool"
        }
      ],
      "name": "ApprovalForAll",
      "type": "event"
    },
    {
      "anonymous": false,
      "inputs": [
        {
          "indexed": false,
          "internalType": "uint256",
          "name": "_fromTokenId",
          "type": "uint256"
        },
        {
          "indexed": false,
          "internalType": "uint256",
          "name": "_toTokenId",
          "type": "uint256"
        }
      ],
      "name": "BatchMetadataUpdate",
      "type": "event"
    },
    {
      "anonymous": false,
      "inputs": [
        {
          "indexed": false,
          "internalType": "uint256",
          "name": "_tokenId",
          "type": "uint256"
        }
      ],
      "name": "MetadataUpdate",
      "type": "event"
    },
    {
      "anonymous": false,
      "inputs": [
        {
          "indexed": true,
          "internalType": "address",
          "name": "from",
          "type": "address"
        },
        {
          "indexed": true,
          "internalType": "address",
          "name": "to",
          "type": "address"
        },
        {
          "indexed": true,
          "internalType": "uint256",
          "name": "tokenId",
          "type": "uint256"
        }
      ],
      "name": "Transfer",
      "type": "event"
    },
    {
      "inputs": [
        {
          "internalType": "address",
          "name": "to",
          "type": "address"
        },
        {
          "internalType": "uint256",
          "name": "tokenId",
          "type": "uint256"
        }
      ],
      "name": "approve",
      "outputs": [],
      "stateMutability": "nonpayable",
      "type": "function"
    },
    {
      "inputs": [
        {
          "internalType": "address",
          "name": "owner",
          "type": "address"
        }
      ],
      "name": "balanceOf",
      "outputs": [
        {
          "internalType": "uint256",
          "name": "",
          "type": "uint256"
        }
      ],
      "stateMutability": "view",
      "type": "function"
    },
    {
      "inputs": [
        {
          "internalType": "uint256",
          "name": "tokenId",
          "type": "uint256"
        }
      ],
      "name": "getApproved",
      "outputs": [
        {
          "internalType": "address",
          "name": "",
          "type": "address"
        }
      ],
      "stateMutability": "view",
      "type": "function"
    },
    {
      "inputs": [
        {
          "internalType": "address",
          "name": "owner",
          "type": "address"
        },
        {
          "internalType": "address",
          "name": "operator",
          "type": "address"
        }
      ],
      "name": "isApprovedForAll",
      "outputs": [
        {
          "internalType": "bool",
          "name": "",
          "type": "bool"
        }
      ],
      "stateMutability": "view",
      "type": "function"
    },
    {
      "inputs": [
        {
          "internalType": "uint256",
          "name": "",
          "type": "uint256"
        }
      ],
      "name": "modelResults",
      "outputs": [
        {
          "internalType": "uint256",
          "name": "accuracy",
          "type": "uint256"
        },
        {
          "internalType": "uint256",
          "name": "recall",
          "type": "uint256"
        },
        {
          "internalType": "uint256",
          "name": "f1Score",
          "type": "uint256"
        },
        {
          "internalType": "string",
          "name": "metadata",
          "type": "string"
        },
        {
          "internalType": "string",
          "name": "description",
          "type": "string"
        }
      ],
      "stateMutability": "view",
      "type": "function"
    },
    {
      "inputs": [],
      "name": "name",
      "outputs": [
        {
          "internalType": "string",
          "name": "",
          "type": "string"
        }
      ],
      "stateMutability": "view",
      "type": "function"
    },
    {
      "inputs": [
        {
          "internalType": "uint256",
          "name": "tokenId",
          "type": "uint256"
        }
      ],
      "name": "ownerOf",
      "outputs": [
        {
          "internalType": "address",
          "name": "",
          "type": "address"
        }
      ],
      "stateMutability": "view",
      "type": "function"
    },
    {
      "inputs": [
        {
          "internalType": "address",
          "name": "from",
          "type": "address"
        },
        {
          "internalType": "address",
          "name": "to",
          "type": "address"
        },
        {
          "internalType": "uint256",
          "name": "tokenId",
          "type": "uint256"
        }
      ],
      "name": "safeTransferFrom",
      "outputs": [],
      "stateMutability": "nonpayable",
      "type": "function"
    },
    {
      "inputs": [
        {
          "internalType": "address",
          "name": "from",
          "type": "address"
        },
        {
          "internalType": "address",
          "name": "to",
          "type": "address"
        },
        {
          "internalType": "uint256",
          "name": "tokenId",
          "type": "uint256"
        },
        {
          "internalType": "bytes",
          "name": "data",
          "type": "bytes"
        }
      ],
      "name": "safeTransferFrom",
      "outputs": [],
      "stateMutability": "nonpayable",
      "type": "function"
    },
    {
      "inputs": [
        {
          "internalType": "address",
          "name": "operator",
          "type": "address"
        },
        {
          "internalType": "bool",
          "name": "approved",
          "type": "bool"
        }
      ],
      "name": "setApprovalForAll",
      "outputs": [],
      "stateMutability": "nonpayable",
      "type": "function"
    },
    {
      "inputs": [
        {
          "internalType": "bytes4",
          "name": "interfaceId",
          "type": "bytes4"
        }
      ],
      "name": "supportsInterface",
      "outputs": [
        {
          "internalType": "bool",
          "name": "",
          "type": "bool"
        }
      ],
      "stateMutability": "view",
      "type": "function"
    },
    {
      "inputs": [],
      "name": "symbol",
      "outputs": [
        {
          "internalType": "string",
          "name": "",
          "type": "string"
        }
      ],
      "stateMutability": "view",
      "type": "function"
    },
    {
      "inputs": [
        {
          "internalType": "uint256",
          "name": "tokenId",
          "type": "uint256"
        }
      ],
      "name": "tokenURI",
      "outputs": [
        {
          "internalType": "string",
          "name": "",
          "type": "string"
        }
      ],
      "stateMutability": "view",
      "type": "function"
    },
    {
      "inputs": [
        {
          "internalType": "address",
          "name": "from",
          "type": "address"
        },
        {
          "internalType": "address",
          "name": "to",
          "type": "address"
        },
        {
          "internalType": "uint256",
          "name": "tokenId",
          "type": "uint256"
        }
      ],
      "name": "transferFrom",
      "outputs": [],
      "stateMutability": "nonpayable",
      "type": "function"
    },
    {
      "inputs": [
        {
          "internalType": "address",
          "name": "recipient",
          "type": "address"
        },
        {
          "internalType": "uint256",
          "name": "accuracy",
          "type": "uint256"
        },
        {
          "internalType": "uint256",
          "name": "recall",
          "type": "uint256"
        },
        {
          "internalType": "uint256",
          "name": "f1Score",
          "type": "uint256"
        },
        {
          "internalType": "string",
          "name": "metadata",
          "type": "string"
        },
        {
          "internalType": "string",
          "name": "description",
          "type": "string"
        }
      ],
      "name": "mintModelResult",
      "outputs": [
        {
          "internalType": "uint256",
          "name": "",
          "type": "uint256"
        }
      ],
      "stateMutability": "nonpayable",
      "type": "function"
    },
    {
      "inputs": [
        {
          "internalType": "uint256",
          "name": "tokenId",
          "type": "uint256"
        }
      ],
      "name": "getModelResult",
      "outputs": [
        {
          "components": [
            {
              "internalType": "uint256",
              "name": "accuracy",
              "type": "uint256"
            },
            {
              "internalType": "uint256",
              "name": "recall",
              "type": "uint256"
            },
            {
              "internalType": "uint256",
              "name": "f1Score",
              "type": "uint256"
            },
            {
              "internalType": "string",
              "name": "metadata",
              "type": "string"
            },
            {
              "internalType": "string",
              "name": "description",
              "type": "string"
            }
          ],
          "internalType": "struct ModelResultNFT.ModelResult",
          "name": "",
          "type": "tuple"
        }
      ],
      "stateMutability": "view",
      "type": "function"
    }
  ],
  "bytecode": "0x608060405234801562000010575f80fd5b506040518060400160405280600b81526020017f4d6f64656c526573756c740000000000000000000000000000000000000000008152506040518060400160405280600381526020017f4d44520000000000000000000000000000000000000000000000000000000000815250815f90816200008d91906200030c565b5080600190816200009f91906200030c565b505050620003f0565b5f81519050919050565b7f4e487b71000000000000000000000000000000000000000000000000000000005f52604160045260245ffd5b7f4e487b71000000000000000000000000000000000000000000000000000000005f52602260045260245ffd5b5f60028204905060018216806200012457607f821691505b6020821081036200013a5762000139620000df565b5b50919050565b5f819050815f5260205f209050919050565b5f6020601f8301049050919050565b5f82821b905092915050565b5f600883026200019e7fffffffffffffffffffffffffffffffffffffffffffffffffffffffffffffffff8262000161565b620001aa868362000161565b95508019841693508086168417925050509392505050565b5f819050919050565b5f819050919050565b5f620001f4620001ee620001e884620001c2565b620001cb565b620001c2565b9050919050565b5f819050919050565b6200020f83620001d4565b620002276200021e82620001fb565b8484546200016d565b825550505050565b5f90565b6200023d6200022f565b6200024a81848462000204565b505050565b5b818110156200027157620002655f8262000233565b60018101905062000250565b5050565b601f821115620002c0576200028a8162000140565b620002958462000152565b81016020851015620002a5578190505b620002bd620002b48562000152565b8301826200024f565b50505b505050565b5f82821c905092915050565b5f620002e25f1984600802620002c5565b1980831691505092915050565b5f620002fc8383620002d1565b9150826002028217905092915050565b6200031782620000a8565b67ffffffffffffffff811115620003335762000332620000b2565b5b6200033f82546200010c565b6200034c82828562000275565b5f60209050601f83116001811462000382575f84156200036d578287015190505b620003798582620002ef565b865550620003e8565b601f198416620003928662000140565b5f5b82811015620003bb5784890151825560018201915060208501945060208101905062000394565b86831015620003db5784890151620003d7601f891682620002d1565b8355505b6001600288020188555050505b505050505050565b612e3e80620003fe5f395ff3fe608060405234801561000f575f80fd5b50600436106100fe575f3560e01c80639144e95111610095578063b88d4fde11610064578063b88d4fde146102ce578063c87b56dd146102ea578063e985e9c51461031a578063fc38d0051461034a576100fe565b80639144e9511461023457806395d89b41146102645780639adb322914610282578063a22cb465146102b2576100fe565b806323b872dd116100d157806323b872dd1461019c57806342842e0e146101b85780636352211e146101d457806370a0823114610204576100fe565b806301ffc9a71461010257806306fdde0314610132578063081812fc14610150578063095ea7b314610180575b5f80fd5b61011c60048036038101906101179190611c8e565b61037e565b6040516101299190611cd3565b60405180910390f35b61013a6103de565b6040516101479190611d76565b60405180910390f35b61016a60048036038101906101659190611dc9565b61046d565b6040516101779190611e33565b60405180910390f35b61019a60048036038101906101959190611e76565b6104af565b005b6101b660048036038101906101b19190611eb4565b6105c5565b005b6101d260048036038101906101cd9190611eb4565b610625565b005b6101ee60048036038101906101e99190611dc9565b610644565b6040516101fb9190611e33565b60405180910390f35b61021e60048036038101906102199190611f04565b6106c8565b60405161022b9190611f3e565b60405180910390f35b61024e60048036038101906102499190612083565b61077c565b60405161025b9190611f3e565b60405180910390f35b61026c61082f565b6040516102799190611d76565b60405180910390f35b61029c60048036038101906102979190611dc9565b6108bf565b6040516102a99190612215565b60405180910390f35b6102cc60048036038101906102c7919061225f565b610a27565b005b6102e860048036038101906102e3919061233b565b610a3d565b005b61030460048036038101906102ff9190611dc9565b610a9f565b6040516103119190611d76565b60405180910390f35b610334600480360381019061032f91906123bb565b610ba9565b6040516103419190611cd3565b60405180910390f35b610364600480360381019061035f9190611dc9565b610c37565b6040516103759594939291906123f9565b60405180910390f35b5f634906490660e01b7bffffffffffffffffffffffffffffffffffffffffffffffffffffffff1916827bffffffffffffffffffffffffffffffffffffffffffffffffffffffff191614806103d757506103d682610d75565b5b9050919050565b60605f80546103ec90612485565b80601f016020809104026020016040519081016040528092919081815260200182805461041890612485565b80156104635780601f1061043a57610100808354040283529160200191610463565b820191905f5260205f20905b81548152906001019060200180831161044657829003601f168201915b5050505050905090565b5f61047782610e56565b60045f8381526020019081526020015f205f9054906101000a900473ffffffffffffffffffffffffffffffffffffffff169050919050565b5f6104b982610644565b90508073ffffffffffffffffffffffffffffffffffffffff168373ffffffffffffffffffffffffffffffffffffffff1603610529576040517f08c379a000000000000000000000000000000000000000000000000000000000815260040161052090612525565b60405180910390fd5b8073ffffffffffffffffffffffffffffffffffffffff16610548610ea1565b73ffffffffffffffffffffffffffffffffffffffff161480610577575061057681610571610ea1565b610ba9565b5b6105b6576040517f08c379a00000000000000000000000000000000000000000000000000000000081526004016105ad906125b3565b60405180910390fd5b6105c08383610ea8565b505050565b6105d66105d0610ea1565b82610f5e565b610615576040517f08c379a000000000000000000000000000000000000000000000000000000000815260040161060c90612641565b60405180910390fd5b610620838383610ff2565b505050565b61063f83838360405180602001604052805f815250610a3d565b505050565b5f8061064f836112de565b90505f73ffffffffffffffffffffffffffffffffffffffff168173ffffffffffffffffffffffffffffffffffffffff16036106bf576040517f08c379a00000000000000000000000000000000000000000000000000000000081526004016106b6906126a9565b60405180910390fd5b80915050919050565b5f8073ffffffffffffffffffffffffffffffffffffffff168273ffffffffffffffffffffffffffffffffffffffff1603610737576040517f08c379a000000000000000000000000000000000000000000000000000000000815260040161072e90612737565b60405180910390fd5b60035f8373ffffffffffffffffffffffffffffffffffffffff1673ffffffffffffffffffffffffffffffffffffffff1681526020019081526020015f20549050919050565b5f6107876007611317565b5f610792600761132b565b905061079e8882611337565b6040518060a001604052808881526020018781526020018681526020018581526020018481525060085f8381526020019081526020015f205f820151815f01556020820151816001015560408201518160020155606082015181600301908161080791906128f2565b50608082015181600401908161081d91906128f2565b50905050809150509695505050505050565b60606001805461083e90612485565b80601f016020809104026020016040519081016040528092919081815260200182805461086a90612485565b80156108b55780601f1061088c576101008083540402835291602001916108b5565b820191905f5260205f20905b81548152906001019060200180831161089857829003601f168201915b5050505050905090565b6108c7611bfc565b60085f8381526020019081526020015f206040518060a00160405290815f8201548152602001600182015481526020016002820154815260200160038201805461091090612485565b80601f016020809104026020016040519081016040528092919081815260200182805461093c90612485565b80156109875780601f1061095e57610100808354040283529160200191610987565b820191905f5260205f20905b81548152906001019060200180831161096a57829003601f168201915b505050505081526020016004820180546109a090612485565b80601f01602080910402602001604051908101604052809291908181526020018280546109cc90612485565b8015610a175780601f106109ee57610100808354040283529160200191610a17565b820191905f5260205f20905b8154815290600101906020018083116109fa57829003601f168201915b5050505050815250509050919050565b610a39610a32610ea1565b838361154a565b5050565b610a4e610a48610ea1565b83610f5e565b610a8d576040517f08c379a0000000000000000000000000000000000000000000000000000000008152600401610a8490612641565b60405180910390fd5b610a99848484846116b1565b50505050565b6060610aaa82610e56565b5f60065f8481526020019081526020015f208054610ac790612485565b80601f0160208091040260200160405190810160405280929190818152602001828054610af390612485565b8015610b3e5780601f10610b1557610100808354040283529160200191610b3e565b820191905f5260205f20905b815481529060010190602001808311610b2157829003601f168201915b505050505090505f610b4e61170d565b90505f815103610b62578192505050610ba4565b5f82511115610b96578082604051602001610b7e9291906129fb565b60405160208183030381529060405292505050610ba4565b610b9f84611723565b925050505b919050565b5f60055f8473ffffffffffffffffffffffffffffffffffffffff1673ffffffffffffffffffffffffffffffffffffffff1681526020019081526020015f205f8373ffffffffffffffffffffffffffffffffffffffff1673ffffffffffffffffffffffffffffffffffffffff1681526020019081526020015f205f9054906101000a900460ff16905092915050565b6008602052805f5260405f205f91509050805f015490806001015490806002015490806003018054610c6890612485565b80601f0160208091040260200160405190810160405280929190818152602001828054610c9490612485565b8015610cdf5780601f10610cb657610100808354040283529160200191610cdf565b820191905f5260205f20905b815481529060010190602001808311610cc257829003601f168201915b505050505090806004018054610cf490612485565b80601f0160208091040260200160405190810160405280929190818152602001828054610d2090612485565b8015610d6b5780601f10610d4257610100808354040283529160200191610d6b565b820191905f5260205f20905b815481529060010190602001808311610d4e57829003601f168201915b5050505050905085565b5f7f80ac58cd000000000000000000000000000000000000000000000000000000007bffffffffffffffffffffffffffffffffffffffffffffffffffffffff1916827bffffffffffffffffffffffffffffffffffffffffffffffffffffffff19161480610e3f57507f5b5e139f000000000000000000000000000000000000000000000000000000007bffffffffffffffffffffffffffffffffffffffffffffffffffffffff1916827bffffffffffffffffffffffffffffffffffffffffffffffffffffffff1916145b80610e4f5750610e4e82611788565b5b9050919050565b610e5f816117f1565b610e9e576040517f08c379a0000000000000000000000000000000000000000000000000000000008152600401610e95906126a9565b60405180910390fd5b50565b5f33905090565b8160045f8381526020019081526020015f205f6101000a81548173ffffffffffffffffffffffffffffffffffffffff021916908373ffffffffffffffffffffffffffffffffffffffff160217905550808273ffffffffffffffffffffffffffffffffffffffff16610f1883610644565b73ffffffffffffffffffffffffffffffffffffffff167f8c5be1e5ebec7d5bd14f71427d1e84f3dd0314c0f7b2291e5b200ac8c7c3b92560405160405180910390a45050565b5f80610f6983610644565b90508073ffffffffffffffffffffffffffffffffffffffff168473ffffffffffffffffffffffffffffffffffffffff161480610fab5750610faa8185610ba9565b5b80610fe957508373ffffffffffffffffffffffffffffffffffffffff16610fd18461046d565b73ffffffffffffffffffffffffffffffffffffffff16145b91505092915050565b8273ffffffffffffffffffffffffffffffffffffffff1661101282610644565b73ffffffffffffffffffffffffffffffffffffffff1614611068576040517f08c379a000000000000000000000000000000000000000000000000000000000815260040161105f90612a8e565b60405180910390fd5b5f73ffffffffffffffffffffffffffffffffffffffff168273ffffffffffffffffffffffffffffffffffffffff16036110d6576040517f08c379a00000000000000000000000000000000000000000000000000000000081526004016110cd90612b1c565b60405180910390fd5b6110e38383836001611831565b8273ffffffffffffffffffffffffffffffffffffffff1661110382610644565b73ffffffffffffffffffffffffffffffffffffffff1614611159576040517f08c379a000000000000000000000000000000000000000000000000000000000815260040161115090612a8e565b60405180910390fd5b60045f8281526020019081526020015f205f6101000a81549073ffffffffffffffffffffffffffffffffffffffff0219169055600160035f8573ffffffffffffffffffffffffffffffffffffffff1673ffffffffffffffffffffffffffffffffffffffff1681526020019081526020015f205f8282540392505081905550600160035f8473ffffffffffffffffffffffffffffffffffffffff1673ffffffffffffffffffffffffffffffffffffffff1681526020019081526020015f205f82825401925050819055508160025f8381526020019081526020015f205f6101000a81548173ffffffffffffffffffffffffffffffffffffffff021916908373ffffffffffffffffffffffffffffffffffffffff160217905550808273ffffffffffffffffffffffffffffffffffffffff168473ffffffffffffffffffffffffffffffffffffffff167fddf252ad1be2c89b69c2b068fc378daa952ba7f163c4a11628f55a4df523b3ef60405160405180910390a46112d98383836001611837565b505050565b5f60025f8381526020019081526020015f205f9054906101000a900473ffffffffffffffffffffffffffffffffffffffff169050919050565b6001815f015f828254019250508190555050565b5f815f01549050919050565b5f73ffffffffffffffffffffffffffffffffffffffff168273ffffffffffffffffffffffffffffffffffffffff16036113a5576040517f08c379a000000000000000000000000000000000000000000000000000000000815260040161139c90612b84565b60405180910390fd5b6113ae816117f1565b156113ee576040517f08c379a00000000000000000000000000000000000000000000000000000000081526004016113e590612bec565b60405180910390fd5b6113fb5f83836001611831565b611404816117f1565b15611444576040517f08c379a000000000000000000000000000000000000000000000000000000000815260040161143b90612bec565b60405180910390fd5b600160035f8473ffffffffffffffffffffffffffffffffffffffff1673ffffffffffffffffffffffffffffffffffffffff1681526020019081526020015f205f82825401925050819055508160025f8381526020019081526020015f205f6101000a81548173ffffffffffffffffffffffffffffffffffffffff021916908373ffffffffffffffffffffffffffffffffffffffff160217905550808273ffffffffffffffffffffffffffffffffffffffff165f73ffffffffffffffffffffffffffffffffffffffff167fddf252ad1be2c89b69c2b068fc378daa952ba7f163c4a11628f55a4df523b3ef60405160405180910390a46115465f83836001611837565b5050565b8173ffffffffffffffffffffffffffffffffffffffff168373ffffffffffffffffffffffffffffffffffffffff16036115b8576040517f08c379a00000000000000000000000000000000000000000000000000000000081526004016115af90612c54565b60405180910390fd5b8060055f8573ffffffffffffffffffffffffffffffffffffffff1673ffffffffffffffffffffffffffffffffffffffff1681526020019081526020015f205f8473ffffffffffffffffffffffffffffffffffffffff1673ffffffffffffffffffffffffffffffffffffffff1681526020019081526020015f205f6101000a81548160ff0219169083151502179055508173ffffffffffffffffffffffffffffffffffffffff168373ffffffffffffffffffffffffffffffffffffffff167f17307eab39ab6107e8899845ad3d59bd9653f200f220920489ca2b5937696c31836040516116a49190611cd3565b60405180910390a3505050565b6116bc848484610ff2565b6116c88484848461183d565b611707576040517f08c379a00000000000000000000000000000000000000000000000000000000081526004016116fe90612ce2565b60405180910390fd5b50505050565b606060405180602001604052805f815250905090565b606061172e82610e56565b5f61173761170d565b90505f8151116117555760405180602001604052805f815250611780565b8061175f846119bf565b6040516020016117709291906129fb565b6040516020818303038152906040525b915050919050565b5f7f01ffc9a7000000000000000000000000000000000000000000000000000000007bffffffffffffffffffffffffffffffffffffffffffffffffffffffff1916827bffffffffffffffffffffffffffffffffffffffffffffffffffffffff1916149050919050565b5f8073ffffffffffffffffffffffffffffffffffffffff16611812836112de565b73ffffffffffffffffffffffffffffffffffffffff1614159050919050565b50505050565b50505050565b5f61185d8473ffffffffffffffffffffffffffffffffffffffff16611a89565b156119b2578373ffffffffffffffffffffffffffffffffffffffff1663150b7a02611886610ea1565b8786866040518563ffffffff1660e01b81526004016118a89493929190612d52565b6020604051808303815f875af19250505080156118e357506040513d601f19601f820116820180604052508101906118e09190612db0565b60015b611962573d805f8114611911576040519150601f19603f3d011682016040523d82523d5f602084013e611916565b606091505b505f81510361195a576040517f08c379a000000000000000000000000000000000000000000000000000000000815260040161195190612ce2565b60405180910390fd5b805181602001fd5b63150b7a0260e01b7bffffffffffffffffffffffffffffffffffffffffffffffffffffffff1916817bffffffffffffffffffffffffffffffffffffffffffffffffffffffff1916149150506119b7565b600190505b949350505050565b60605f60016119cd84611aab565b0190505f8167ffffffffffffffff8111156119eb576119ea611f5f565b5b6040519080825280601f01601f191660200182016040528015611a1d5781602001600182028036833780820191505090505b5090505f82602001820190505b600115611a7e578080600190039150507f3031323334353637383961626364656600000000000000000000000000000000600a86061a8153600a8581611a7357611a72612ddb565b5b0494505f8503611a2a575b819350505050919050565b5f808273ffffffffffffffffffffffffffffffffffffffff163b119050919050565b5f805f90507a184f03e93ff9f4daa797ed6e38ed64bf6a1f0100000000000000008310611b07577a184f03e93ff9f4daa797ed6e38ed64bf6a1f0100000000000000008381611afd57611afc612ddb565b5b0492506040810190505b6d04ee2d6d415b85acef81000000008310611b44576d04ee2d6d415b85acef81000000008381611b3a57611b39612ddb565b5b0492506020810190505b662386f26fc100008310611b7357662386f26fc100008381611b6957611b68612ddb565b5b0492506010810190505b6305f5e1008310611b9c576305f5e1008381611b9257611b91612ddb565b5b0492506008810190505b6127108310611bc1576127108381611bb757611bb6612ddb565b5b0492506004810190505b60648310611be45760648381611bda57611bd9612ddb565b5b0492506002810190505b600a8310611bf3576001810190505b80915050919050565b6040518060a001604052805f81526020015f81526020015f815260200160608152602001606081525090565b5f604051905090565b5f80fd5b5f80fd5b5f7fffffffff0000000000000000000000000000000000000000000000000000000082169050919050565b611c6d81611c39565b8114611c77575f80fd5b50565b5f81359050611c8881611c64565b92915050565b5f60208284031215611ca357611ca2611c31565b5b5f611cb084828501611c7a565b91505092915050565b5f8115159050919050565b611ccd81611cb9565b82525050565b5f602082019050611ce65f830184611cc4565b92915050565b5f81519050919050565b5f82825260208201905092915050565b5f5b83811015611d23578082015181840152602081019050611d08565b5f8484015250505050565b5f601f19601f8301169050919050565b5f611d4882611cec565b611d528185611cf6565b9350611d62818560208601611d06565b611d6b81611d2e565b840191505092915050565b5f6020820190508181035f830152611d8e8184611d3e565b905092915050565b5f819050919050565b611da881611d96565b8114611db2575f80fd5b50565b5f81359050611dc381611d9f565b92915050565b5f60208284031215611dde57611ddd611c31565b5b5f611deb84828501611db5565b91505092915050565b5f73ffffffffffffffffffffffffffffffffffffffff82169050919050565b5f611e1d82611df4565b9050919050565b611e2d81611e13565b82525050565b5f602082019050611e465f830184611e24565b92915050565b611e5581611e13565b8114611e5f575f80fd5b50565b5f81359050611e7081611e4c565b92915050565b5f8060408385031215611e8c57611e8b611c31565b5b5f611e9985828601611e62565b9250506020611eaa85828601611db5565b9150509250929050565b5f805f60608486031215611ecb57611eca611c31565b5b5f611ed886828701611e62565b9350506020611ee986828701611e62565b9250506040611efa86828701611db5565b9150509250925092565b5f60208284031215611f1957611f18611c31565b5b5f611f2684828501611e62565b91505092915050565b611f3881611d96565b82525050565b5f602082019050611f515f830184611f2f565b92915050565b5f80fd5b5f80fd5b7f4e487b71000000000000000000000000000000000000000000000000000000005f52604160045260245ffd5b611f9582611d2e565b810181811067ffffffffffffffff82111715611fb457611fb3611f5f565b5b80604052505050565b5f611fc6611c28565b9050611fd28282611f8c565b919050565b5f67ffffffffffffffff821115611ff157611ff0611f5f565b5b611ffa82611d2e565b9050602081019050919050565b828183375f83830152505050565b5f61202761202284611fd7565b611fbd565b90508281526020810184848401111561204357612042611f5b565b5b61204e848285612007565b509392505050565b5f82601f83011261206a57612069611f57565b5b813561207a848260208601612015565b91505092915050565b5f805f805f8060c0878903121561209d5761209c611c31565b5b5f6120aa89828a01611e62565b96505060206120bb89828a01611db5565b95505060406120cc89828a01611db5565b94505060606120dd89828a01611db5565b935050608087013567ffffffffffffffff8111156120fe576120fd611c35565b5b61210a89828a01612056565b92505060a087013567ffffffffffffffff81111561212b5761212a611c35565b5b61213789828a01612056565b9150509295509295509295565b61214d81611d96565b82525050565b5f82825260208201905092915050565b5f61216d82611cec565b6121778185612153565b9350612187818560208601611d06565b61219081611d2e565b840191505092915050565b5f60a083015f8301516121b05f860182612144565b5060208301516121c36020860182612144565b5060408301516121d66040860182612144565b50606083015184820360608601526121ee8282612163565b915050608083015184820360808601526122088282612163565b9150508091505092915050565b5f6020820190508181035f83015261222d818461219b565b905092915050565b61223e81611cb9565b8114612248575f80fd5b50565b5f8135905061225981612235565b92915050565b5f806040838503121561227557612274611c31565b5b5f61228285828601611e62565b92505060206122938582860161224b565b9150509250929050565b5f67ffffffffffffffff8211156122b7576122b6611f5f565b5b6122c082611d2e565b9050602081019050919050565b5f6122df6122da8461229d565b611fbd565b9050828152602081018484840111156122fb576122fa611f5b565b5b612306848285612007565b509392505050565b5f82601f83011261232257612321611f57565b5b81356123328482602086016122cd565b91505092915050565b5f805f806080858703121561235357612352611c31565b5b5f61236087828801611e62565b945050602061237187828801611e62565b935050604061238287828801611db5565b925050606085013567ffffffffffffffff8111156123a3576123a2611c35565b5b6123af8782880161230e565b91505092959194509250565b5f80604083850312156123d1576123d0611c31565b5b5f6123de85828601611e62565b92505060206123ef85828601611e62565b9150509250929050565b5f60a08201905061240c5f830188611f2f565b6124196020830187611f2f565b6124266040830186611f2f565b81810360608301526124388185611d3e565b9050818103608083015261244c8184611d3e565b90509695505050505050565b7f4e487b71000000000000000000000000000000000000000000000000000000005f52602260045260245ffd5b5f600282049050600182168061249c57607f821691505b6020821081036124af576124ae612458565b5b50919050565b7f4552433732313a20617070726f76616c20746f2063757272656e74206f776e655f8201527f7200000000000000000000000000000000000000000000000000000000000000602082015250565b5f61250f602183611cf6565b915061251a826124b5565b604082019050919050565b5f6020820190508181035f83015261253c81612503565b9050919050565b7f4552433732313a20617070726f76652063616c6c6572206973206e6f7420746f5f8201527f6b656e206f776e6572206f7220617070726f76656420666f7220616c6c000000602082015250565b5f61259d603d83611cf6565b91506125a882612543565b604082019050919050565b5f6020820190508181035f8301526125ca81612591565b9050919050565b7f4552433732313a2063616c6c6572206973206e6f7420746f6b656e206f776e655f8201527f72206f7220617070726f76656400000000000000000000000000000000000000602082015250565b5f61262b602d83611cf6565b9150612636826125d1565b604082019050919050565b5f6020820190508181035f8301526126588161261f565b9050919050565b7f4552433732313a20696e76616c696420746f6b656e20494400000000000000005f82015250565b5f612693601883611cf6565b915061269e8261265f565b602082019050919050565b5f6020820190508181035f8301526126c081612687565b9050919050565b7f4552433732313a2061646472657373207a65726f206973206e6f7420612076615f8201527f6c6964206f776e65720000000000000000000000000000000000000000000000602082015250565b5f612721602983611cf6565b915061272c826126c7565b604082019050919050565b5f6020820190508181035f83015261274e81612715565b9050919050565b5f819050815f5260205f209050919050565b5f6020601f8301049050919050565b5f82821b905092915050565b5f600883026127b17fffffffffffffffffffffffffffffffffffffffffffffffffffffffffffffffff82612776565b6127bb8683612776565b95508019841693508086168417925050509392505050565b5f819050919050565b5f6127f66127f16127ec84611d96565b6127d3565b611d96565b9050919050565b5f819050919050565b61280f836127dc565b61282361281b826127fd565b848454612782565b825550505050565b5f90565b61283761282b565b612842818484612806565b505050565b5b818110156128655761285a5f8261282f565b600181019050612848565b5050565b601f8211156128aa5761287b81612755565b61288484612767565b81016020851015612893578190505b6128a761289f85612767565b830182612847565b50505b505050565b5f82821c905092915050565b5f6128ca5f19846008026128af565b1980831691505092915050565b5f6128e283836128bb565b9150826002028217905092915050565b6128fb82611cec565b67ffffffffffffffff81111561291457612913611f5f565b5b61291e8254612485565b612929828285612869565b5f60209050601f83116001811461295a575f8415612948578287015190505b61295285826128d7565b8655506129b9565b601f19841661296886612755565b5f5b8281101561298f5784890151825560018201915060208501945060208101905061296a565b868310156129ac57848901516129a8601f8916826128bb565b8355505b6001600288020188555050505b505050505050565b5f81905092915050565b5f6129d582611cec565b6129df81856129c1565b93506129ef818560208601611d06565b80840191505092915050565b5f612a0682856129cb565b9150612a1282846129cb565b91508190509392505050565b7f4552433732313a207472616e736665722066726f6d20696e636f7272656374205f8201527f6f776e6572000000000000000000000000000000000000000000000000000000602082015250565b5f612a78602583611cf6565b9150612a8382612a1e565b604082019050919050565b5f6020820190508181035f830152612aa581612a6c565b9050919050565b7f4552433732313a207472616e7366657220746f20746865207a65726f206164645f8201527f7265737300000000000000000000000000000000000000000000000000000000602082015250565b5f612b06602483611cf6565b9150612b1182612aac565b604082019050919050565b5f6020820190508181035f830152612b3381612afa565b9050919050565b7f4552433732313a206d696e7420746f20746865207a65726f20616464726573735f82015250565b5f612b6e602083611cf6565b9150612b7982612b3a565b602082019050919050565b5f6020820190508181035f830152612b9b81612b62565b9050919050565b7f4552433732313a20746f6b656e20616c7265616479206d696e746564000000005f82015250565b5f612bd6601c83611cf6565b9150612be182612ba2565b602082019050919050565b5f6020820190508181035f830152612c0381612bca565b9050919050565b7f4552433732313a20617070726f766520746f2063616c6c6572000000000000005f82015250565b5f612c3e601983611cf6565b9150612c4982612c0a565b602082019050919050565b5f6020820190508181035f830152612c6b81612c32565b9050919050565b7f4552433732313a207472616e7366657220746f206e6f6e2045524337323152655f8201527f63656976657220696d706c656d656e7465720000000000000000000000000000602082015250565b5f612ccc603283611cf6565b9150612cd782612c72565b604082019050919050565b5f6020820190508181035f830152612cf981612cc0565b9050919050565b5f81519050919050565b5f82825260208201905092915050565b5f612d2482612d00565b612d2e8185612d0a565b9350612d3e818560208601611d06565b612d4781611d2e565b840191505092915050565b5f608082019050612d655f830187611e24565b612d726020830186611e24565b612d7f6040830185611f2f565b8181036060830152612d918184612d1a565b905095945050505050565b5f81519050612daa81611c64565b92915050565b5f60208284031215612dc557612dc4611c31565b5b5f612dd284828501612d9c565b91505092915050565b7f4e487b71000000000000000000000000000000000000000000000000000000005f52601260045260245ffdfea264697066735822122019eeef244489ec57cbcbcd51eda96d20d5f1f095ab1e7ff175ed65f0b3445db564736f6c63430008140033",
  "immutableReferences": {},
  "source": "// SPDX-License-Identifier: UNLICENSED\npragma solidity ^0.8.0;\n\nimport \"@openzeppelin/contracts/token/ERC721/ERC721.sol\";\nimport \"@openzeppelin/contracts/token/ERC721/extensions/ERC721URIStorage.sol\";\nimport \"@openzeppelin/contracts/utils/Counters.sol\";\n\ncontract ModelResultNFT is ERC721URIStorage {\n    using Counters for Counters.Counter;\n    Counters.Counter private _tokenIds;\n\n    struct ModelResult {\n        uint256 accuracy;\n        uint256 recall;\n        uint256 f1Score;\n        string metadata;\n        string description; \n    }\n\n    mapping(uint256 => ModelResult) public modelResults;\n\n    constructor() ERC721(\"ModelResult\", \"MDR\") {}\n\n    function mintModelResult(\n        address recipient,\n        uint256 accuracy,\n        uint256 recall,\n        uint256 f1Score,\n        string memory metadata,\n        string memory description \n    ) public returns (uint256) {\n        _tokenIds.increment();\n\n        uint256 newItemId = _tokenIds.current();\n        _mint(recipient, newItemId);\n\n        // Added description to the ModelResult struct\n        modelResults[newItemId] = ModelResult(accuracy, recall, f1Score, metadata, description);\n\n        return newItemId;\n    }\n\n    function getModelResult(uint256 tokenId) public view returns (ModelResult memory) {\n        return modelResults[tokenId];\n    }\n}\n",
  "sourcePath": "/Users/irfankaradeniz/Documents/Repos/Model Monitoring Simulation/contracts/model_nft.sol",
  "compiler": {
    "name": "solc",
    "version": "0.8.20+commit.a1b79de6.Emscripten.clang"
  },
  "schemaVersion": "3.4.13",
  "updatedAt": "2023-05-24T18:29:38.109Z",
  "devdoc": {
    "events": {
      "Approval(address,address,uint256)": {
        "details": "Emitted when `owner` enables `approved` to manage the `tokenId` token."
      },
      "ApprovalForAll(address,address,bool)": {
        "details": "Emitted when `owner` enables or disables (`approved`) `operator` to manage all of its assets."
      },
      "BatchMetadataUpdate(uint256,uint256)": {
        "details": "This event emits when the metadata of a range of tokens is changed. So that the third-party platforms such as NFT market could timely update the images and related attributes of the NFTs."
      },
      "MetadataUpdate(uint256)": {
        "details": "This event emits when the metadata of a token is changed. So that the third-party platforms such as NFT market could timely update the images and related attributes of the NFT."
      },
      "Transfer(address,address,uint256)": {
        "details": "Emitted when `tokenId` token is transferred from `from` to `to`."
      }
    },
    "kind": "dev",
    "methods": {
      "approve(address,uint256)": {
        "details": "See {IERC721-approve}."
      },
      "balanceOf(address)": {
        "details": "See {IERC721-balanceOf}."
      },
      "getApproved(uint256)": {
        "details": "See {IERC721-getApproved}."
      },
      "isApprovedForAll(address,address)": {
        "details": "See {IERC721-isApprovedForAll}."
      },
      "name()": {
        "details": "See {IERC721Metadata-name}."
      },
      "ownerOf(uint256)": {
        "details": "See {IERC721-ownerOf}."
      },
      "safeTransferFrom(address,address,uint256)": {
        "details": "See {IERC721-safeTransferFrom}."
      },
      "safeTransferFrom(address,address,uint256,bytes)": {
        "details": "See {IERC721-safeTransferFrom}."
      },
      "setApprovalForAll(address,bool)": {
        "details": "See {IERC721-setApprovalForAll}."
      },
      "supportsInterface(bytes4)": {
        "details": "See {IERC165-supportsInterface}"
      },
      "symbol()": {
        "details": "See {IERC721Metadata-symbol}."
      },
      "tokenURI(uint256)": {
        "details": "See {IERC721Metadata-tokenURI}."
      },
      "transferFrom(address,address,uint256)": {
        "details": "See {IERC721-transferFrom}."
      }
    },
    "version": 1
  },
  "userdoc": {
    "kind": "user",
    "methods": {},
    "version": 1
  }
}